{"contracts/CreditScoring.sol":{"CreditScoring":{"abi":[{"inputs":[{"internalType":"uint256","name":"liquidity","type":"uint256"},{"internalType":"uint256","name":"stability","type":"uint256"},{"internalType":"uint256","name":"risk","type":"uint256"},{"internalType":"uint256","name":"reputation","type":"uint256"},{"internalType":"uint256","name":"activity","type":"uint256"}],"name":"calculateCreditScore","outputs":[{"internalType":"uint256","name":"","type":"uint256"}],"stateMutability":"pure","type":"function"},{"inputs":[{"internalType":"address","name":"user","type":"address"}],"name":"calculateScore","outputs":[{"internalType":"uint256","name":"","type":"uint256"}],"stateMutability":"view","type":"function"},{"inputs":[{"internalType":"address","name":"user","type":"address"},{"internalType":"uint256","name":"chainId","type":"uint256"}],"name":"getLiquidity","outputs":[{"internalType":"uint256","name":"","type":"uint256"}],"stateMutability":"view","type":"function"},{"inputs":[{"internalType":"address","name":"user","type":"address"}],"name":"getProtocolScore","outputs":[{"internalType":"uint256","name":"","type":"uint256"}],"stateMutability":"view","type":"function"},{"inputs":[{"internalType":"address","name":"user","type":"address"}],"name":"getRepaymentHistory","outputs":[{"internalType":"uint256","name":"","type":"uint256"}],"stateMutability":"view","type":"function"},{"inputs":[{"internalType":"address","name":"user","type":"address"}],"name":"getTokenHoldingsRisk","outputs":[{"internalType":"uint256","name":"","type":"uint256"}],"stateMutability":"view","type":"function"}],"evm":{"bytecode":{"linkReferences":{},"object":"6080604052348015600f57600080fd5b506105c28061001f6000396000f3fe608060405234801561001057600080fd5b50600436106100615760003560e01c806229f3c314610066578063167ccedc1461009657806323e957b6146100c6578063740ad12a146100f6578063cb8b748b14610126578063cc255b5214610156575b600080fd5b610080600480360381019061007b91906102e3565b610186565b60405161008d919061036d565b60405180910390f35b6100b060048036038101906100ab91906103e6565b610208565b6040516100bd919061036d565b60405180910390f35b6100e060048036038101906100db91906103e6565b610213565b6040516100ed919061036d565b60405180910390f35b610110600480360381019061010b9190610413565b610286565b60405161011d919061036d565b60405180910390f35b610140600480360381019061013b91906103e6565b610292565b60405161014d919061036d565b60405180910390f35b610170600480360381019061016b91906103e6565b61029d565b60405161017d919061036d565b60405180910390f35b6000606482600a6101979190610482565b8460146101a49190610482565b8660146101b19190610482565b88601e6101be9190610482565b8a60286101cb9190610482565b6101d591906104c4565b6101df91906104f8565b6101e991906104c4565b6101f391906104c4565b6101fd919061055b565b905095945050505050565b600060649050919050565b60008061021f83610292565b9050600061022c8461029d565b9050600061023985610208565b9050600060148261024a9190610482565b601e846102579190610482565b6032866102649190610482565b61026e91906104c4565b61027891906104c4565b905080945050505050919050565b60006064905092915050565b600060649050919050565b600060649050919050565b600080fd5b6000819050919050565b6102c0816102ad565b81146102cb57600080fd5b50565b6000813590506102dd816102b7565b92915050565b600080600080600060a086880312156102ff576102fe6102a8565b5b600061030d888289016102ce565b955050602061031e888289016102ce565b945050604061032f888289016102ce565b9350506060610340888289016102ce565b9250506080610351888289016102ce565b9150509295509295909350565b610367816102ad565b82525050565b6000602082019050610382600083018461035e565b92915050565b600073ffffffffffffffffffffffffffffffffffffffff82169050919050565b60006103b382610388565b9050919050565b6103c3816103a8565b81146103ce57600080fd5b50565b6000813590506103e0816103ba565b92915050565b6000602082840312156103fc576103fb6102a8565b5b600061040a848285016103d1565b91505092915050565b6000806040838503121561042a576104296102a8565b5b6000610438858286016103d1565b9250506020610449858286016102ce565b9150509250929050565b7f4e487b7100000000000000000000000000000000000000000000000000000000600052601160045260246000fd5b600061048d826102ad565b9150610498836102ad565b92508282026104a6816102ad565b915082820484148315176104bd576104bc610453565b5b5092915050565b60006104cf826102ad565b91506104da836102ad565b92508282019050808211156104f2576104f1610453565b5b92915050565b6000610503826102ad565b915061050e836102ad565b925082820390508181111561052657610525610453565b5b92915050565b7f4e487b7100000000000000000000000000000000000000000000000000000000600052601260045260246000fd5b6000610566826102ad565b9150610571836102ad565b9250826105815761058061052c565b5b82820490509291505056fea26469706673582212206e6a63f8698c321c5eb2c1107631ebc9e7d073ef8308f3ba486917d45a1039fc64736f6c634300081b0033","opcodes":"PUSH1 0x80 PUSH1 0x40 MSTORE CALLVALUE DUP1 ISZERO PUSH1 0xF JUMPI PUSH1 0x0 DUP1 REVERT JUMPDEST POP PUSH2 0x5C2 DUP1 PUSH2 0x1F PUSH1 0x0 CODECOPY PUSH1 0x0 RETURN INVALID PUSH1 0x80 PUSH1 0x40 MSTORE CALLVALUE DUP1 ISZERO PUSH2 0x10 JUMPI PUSH1 0x0 DUP1 REVERT JUMPDEST POP PUSH1 0x4 CALLDATASIZE LT PUSH2 0x61 JUMPI PUSH1 0x0 CALLDATALOAD PUSH1 0xE0 SHR DUP1 PUSH3 0x29F3C3 EQ PUSH2 0x66 JUMPI DUP1 PUSH4 0x167CCEDC EQ PUSH2 0x96 JUMPI DUP1 PUSH4 0x23E957B6 EQ PUSH2 0xC6 JUMPI DUP1 PUSH4 0x740AD12A EQ PUSH2 0xF6 JUMPI DUP1 PUSH4 0xCB8B748B EQ PUSH2 0x126 JUMPI DUP1 PUSH4 0xCC255B52 EQ PUSH2 0x156 JUMPI JUMPDEST PUSH1 0x0 DUP1 REVERT JUMPDEST PUSH2 0x80 PUSH1 0x4 DUP1 CALLDATASIZE SUB DUP2 ADD SWAP1 PUSH2 0x7B SWAP2 SWAP1 PUSH2 0x2E3 JUMP JUMPDEST PUSH2 0x186 JUMP JUMPDEST PUSH1 0x40 MLOAD PUSH2 0x8D SWAP2 SWAP1 PUSH2 0x36D JUMP JUMPDEST PUSH1 0x40 MLOAD DUP1 SWAP2 SUB SWAP1 RETURN JUMPDEST PUSH2 0xB0 PUSH1 0x4 DUP1 CALLDATASIZE SUB DUP2 ADD SWAP1 PUSH2 0xAB SWAP2 SWAP1 PUSH2 0x3E6 JUMP JUMPDEST PUSH2 0x208 JUMP JUMPDEST PUSH1 0x40 MLOAD PUSH2 0xBD SWAP2 SWAP1 PUSH2 0x36D JUMP JUMPDEST PUSH1 0x40 MLOAD DUP1 SWAP2 SUB SWAP1 RETURN JUMPDEST PUSH2 0xE0 PUSH1 0x4 DUP1 CALLDATASIZE SUB DUP2 ADD SWAP1 PUSH2 0xDB SWAP2 SWAP1 PUSH2 0x3E6 JUMP JUMPDEST PUSH2 0x213 JUMP JUMPDEST PUSH1 0x40 MLOAD PUSH2 0xED SWAP2 SWAP1 PUSH2 0x36D JUMP JUMPDEST PUSH1 0x40 MLOAD DUP1 SWAP2 SUB SWAP1 RETURN JUMPDEST PUSH2 0x110 PUSH1 0x4 DUP1 CALLDATASIZE SUB DUP2 ADD SWAP1 PUSH2 0x10B SWAP2 SWAP1 PUSH2 0x413 JUMP JUMPDEST PUSH2 0x286 JUMP JUMPDEST PUSH1 0x40 MLOAD PUSH2 0x11D SWAP2 SWAP1 PUSH2 0x36D JUMP JUMPDEST PUSH1 0x40 MLOAD DUP1 SWAP2 SUB SWAP1 RETURN JUMPDEST PUSH2 0x140 PUSH1 0x4 DUP1 CALLDATASIZE SUB DUP2 ADD SWAP1 PUSH2 0x13B SWAP2 SWAP1 PUSH2 0x3E6 JUMP JUMPDEST PUSH2 0x292 JUMP JUMPDEST PUSH1 0x40 MLOAD PUSH2 0x14D SWAP2 SWAP1 PUSH2 0x36D JUMP JUMPDEST PUSH1 0x40 MLOAD DUP1 SWAP2 SUB SWAP1 RETURN JUMPDEST PUSH2 0x170 PUSH1 0x4 DUP1 CALLDATASIZE SUB DUP2 ADD SWAP1 PUSH2 0x16B SWAP2 SWAP1 PUSH2 0x3E6 JUMP JUMPDEST PUSH2 0x29D JUMP JUMPDEST PUSH1 0x40 MLOAD PUSH2 0x17D SWAP2 SWAP1 PUSH2 0x36D JUMP JUMPDEST PUSH1 0x40 MLOAD DUP1 SWAP2 SUB SWAP1 RETURN JUMPDEST PUSH1 0x0 PUSH1 0x64 DUP3 PUSH1 0xA PUSH2 0x197 SWAP2 SWAP1 PUSH2 0x482 JUMP JUMPDEST DUP5 PUSH1 0x14 PUSH2 0x1A4 SWAP2 SWAP1 PUSH2 0x482 JUMP JUMPDEST DUP7 PUSH1 0x14 PUSH2 0x1B1 SWAP2 SWAP1 PUSH2 0x482 JUMP JUMPDEST DUP9 PUSH1 0x1E PUSH2 0x1BE SWAP2 SWAP1 PUSH2 0x482 JUMP JUMPDEST DUP11 PUSH1 0x28 PUSH2 0x1CB SWAP2 SWAP1 PUSH2 0x482 JUMP JUMPDEST PUSH2 0x1D5 SWAP2 SWAP1 PUSH2 0x4C4 JUMP JUMPDEST PUSH2 0x1DF SWAP2 SWAP1 PUSH2 0x4F8 JUMP JUMPDEST PUSH2 0x1E9 SWAP2 SWAP1 PUSH2 0x4C4 JUMP JUMPDEST PUSH2 0x1F3 SWAP2 SWAP1 PUSH2 0x4C4 JUMP JUMPDEST PUSH2 0x1FD SWAP2 SWAP1 PUSH2 0x55B JUMP JUMPDEST SWAP1 POP SWAP6 SWAP5 POP POP POP POP POP JUMP JUMPDEST PUSH1 0x0 PUSH1 0x64 SWAP1 POP SWAP2 SWAP1 POP JUMP JUMPDEST PUSH1 0x0 DUP1 PUSH2 0x21F DUP4 PUSH2 0x292 JUMP JUMPDEST SWAP1 POP PUSH1 0x0 PUSH2 0x22C DUP5 PUSH2 0x29D JUMP JUMPDEST SWAP1 POP PUSH1 0x0 PUSH2 0x239 DUP6 PUSH2 0x208 JUMP JUMPDEST SWAP1 POP PUSH1 0x0 PUSH1 0x14 DUP3 PUSH2 0x24A SWAP2 SWAP1 PUSH2 0x482 JUMP JUMPDEST PUSH1 0x1E DUP5 PUSH2 0x257 SWAP2 SWAP1 PUSH2 0x482 JUMP JUMPDEST PUSH1 0x32 DUP7 PUSH2 0x264 SWAP2 SWAP1 PUSH2 0x482 JUMP JUMPDEST PUSH2 0x26E SWAP2 SWAP1 PUSH2 0x4C4 JUMP JUMPDEST PUSH2 0x278 SWAP2 SWAP1 PUSH2 0x4C4 JUMP JUMPDEST SWAP1 POP DUP1 SWAP5 POP POP POP POP POP SWAP2 SWAP1 POP JUMP JUMPDEST PUSH1 0x0 PUSH1 0x64 SWAP1 POP SWAP3 SWAP2 POP POP JUMP JUMPDEST PUSH1 0x0 PUSH1 0x64 SWAP1 POP SWAP2 SWAP1 POP JUMP JUMPDEST PUSH1 0x0 PUSH1 0x64 SWAP1 POP SWAP2 SWAP1 POP JUMP JUMPDEST PUSH1 0x0 DUP1 REVERT JUMPDEST PUSH1 0x0 DUP2 SWAP1 POP SWAP2 SWAP1 POP JUMP JUMPDEST PUSH2 0x2C0 DUP2 PUSH2 0x2AD JUMP JUMPDEST DUP2 EQ PUSH2 0x2CB JUMPI PUSH1 0x0 DUP1 REVERT JUMPDEST POP JUMP JUMPDEST PUSH1 0x0 DUP2 CALLDATALOAD SWAP1 POP PUSH2 0x2DD DUP2 PUSH2 0x2B7 JUMP JUMPDEST SWAP3 SWAP2 POP POP JUMP JUMPDEST PUSH1 0x0 DUP1 PUSH1 0x0 DUP1 PUSH1 0x0 PUSH1 0xA0 DUP7 DUP9 SUB SLT ISZERO PUSH2 0x2FF JUMPI PUSH2 0x2FE PUSH2 0x2A8 JUMP JUMPDEST JUMPDEST PUSH1 0x0 PUSH2 0x30D DUP9 DUP3 DUP10 ADD PUSH2 0x2CE JUMP JUMPDEST SWAP6 POP POP PUSH1 0x20 PUSH2 0x31E DUP9 DUP3 DUP10 ADD PUSH2 0x2CE JUMP JUMPDEST SWAP5 POP POP PUSH1 0x40 PUSH2 0x32F DUP9 DUP3 DUP10 ADD PUSH2 0x2CE JUMP JUMPDEST SWAP4 POP POP PUSH1 0x60 PUSH2 0x340 DUP9 DUP3 DUP10 ADD PUSH2 0x2CE JUMP JUMPDEST SWAP3 POP POP PUSH1 0x80 PUSH2 0x351 DUP9 DUP3 DUP10 ADD PUSH2 0x2CE JUMP JUMPDEST SWAP2 POP POP SWAP3 SWAP6 POP SWAP3 SWAP6 SWAP1 SWAP4 POP JUMP JUMPDEST PUSH2 0x367 DUP2 PUSH2 0x2AD JUMP JUMPDEST DUP3 MSTORE POP POP JUMP JUMPDEST PUSH1 0x0 PUSH1 0x20 DUP3 ADD SWAP1 POP PUSH2 0x382 PUSH1 0x0 DUP4 ADD DUP5 PUSH2 0x35E JUMP JUMPDEST SWAP3 SWAP2 POP POP JUMP JUMPDEST PUSH1 0x0 PUSH20 0xFFFFFFFFFFFFFFFFFFFFFFFFFFFFFFFFFFFFFFFF DUP3 AND SWAP1 POP SWAP2 SWAP1 POP JUMP JUMPDEST PUSH1 0x0 PUSH2 0x3B3 DUP3 PUSH2 0x388 JUMP JUMPDEST SWAP1 POP SWAP2 SWAP1 POP JUMP JUMPDEST PUSH2 0x3C3 DUP2 PUSH2 0x3A8 JUMP JUMPDEST DUP2 EQ PUSH2 0x3CE JUMPI PUSH1 0x0 DUP1 REVERT JUMPDEST POP JUMP JUMPDEST PUSH1 0x0 DUP2 CALLDATALOAD SWAP1 POP PUSH2 0x3E0 DUP2 PUSH2 0x3BA JUMP JUMPDEST SWAP3 SWAP2 POP POP JUMP JUMPDEST PUSH1 0x0 PUSH1 0x20 DUP3 DUP5 SUB SLT ISZERO PUSH2 0x3FC JUMPI PUSH2 0x3FB PUSH2 0x2A8 JUMP JUMPDEST JUMPDEST PUSH1 0x0 PUSH2 0x40A DUP5 DUP3 DUP6 ADD PUSH2 0x3D1 JUMP JUMPDEST SWAP2 POP POP SWAP3 SWAP2 POP POP JUMP JUMPDEST PUSH1 0x0 DUP1 PUSH1 0x40 DUP4 DUP6 SUB SLT ISZERO PUSH2 0x42A JUMPI PUSH2 0x429 PUSH2 0x2A8 JUMP JUMPDEST JUMPDEST PUSH1 0x0 PUSH2 0x438 DUP6 DUP3 DUP7 ADD PUSH2 0x3D1 JUMP JUMPDEST SWAP3 POP POP PUSH1 0x20 PUSH2 0x449 DUP6 DUP3 DUP7 ADD PUSH2 0x2CE JUMP JUMPDEST SWAP2 POP POP SWAP3 POP SWAP3 SWAP1 POP JUMP JUMPDEST PUSH32 0x4E487B7100000000000000000000000000000000000000000000000000000000 PUSH1 0x0 MSTORE PUSH1 0x11 PUSH1 0x4 MSTORE PUSH1 0x24 PUSH1 0x0 REVERT JUMPDEST PUSH1 0x0 PUSH2 0x48D DUP3 PUSH2 0x2AD JUMP JUMPDEST SWAP2 POP PUSH2 0x498 DUP4 PUSH2 0x2AD JUMP JUMPDEST SWAP3 POP DUP3 DUP3 MUL PUSH2 0x4A6 DUP2 PUSH2 0x2AD JUMP JUMPDEST SWAP2 POP DUP3 DUP3 DIV DUP5 EQ DUP4 ISZERO OR PUSH2 0x4BD JUMPI PUSH2 0x4BC PUSH2 0x453 JUMP JUMPDEST JUMPDEST POP SWAP3 SWAP2 POP POP JUMP JUMPDEST PUSH1 0x0 PUSH2 0x4CF DUP3 PUSH2 0x2AD JUMP JUMPDEST SWAP2 POP PUSH2 0x4DA DUP4 PUSH2 0x2AD JUMP JUMPDEST SWAP3 POP DUP3 DUP3 ADD SWAP1 POP DUP1 DUP3 GT ISZERO PUSH2 0x4F2 JUMPI PUSH2 0x4F1 PUSH2 0x453 JUMP JUMPDEST JUMPDEST SWAP3 SWAP2 POP POP JUMP JUMPDEST PUSH1 0x0 PUSH2 0x503 DUP3 PUSH2 0x2AD JUMP JUMPDEST SWAP2 POP PUSH2 0x50E DUP4 PUSH2 0x2AD JUMP JUMPDEST SWAP3 POP DUP3 DUP3 SUB SWAP1 POP DUP2 DUP2 GT ISZERO PUSH2 0x526 JUMPI PUSH2 0x525 PUSH2 0x453 JUMP JUMPDEST JUMPDEST SWAP3 SWAP2 POP POP JUMP JUMPDEST PUSH32 0x4E487B7100000000000000000000000000000000000000000000000000000000 PUSH1 0x0 MSTORE PUSH1 0x12 PUSH1 0x4 MSTORE PUSH1 0x24 PUSH1 0x0 REVERT JUMPDEST PUSH1 0x0 PUSH2 0x566 DUP3 PUSH2 0x2AD JUMP JUMPDEST SWAP2 POP PUSH2 0x571 DUP4 PUSH2 0x2AD JUMP JUMPDEST SWAP3 POP DUP3 PUSH2 0x581 JUMPI PUSH2 0x580 PUSH2 0x52C JUMP JUMPDEST JUMPDEST DUP3 DUP3 DIV SWAP1 POP SWAP3 SWAP2 POP POP JUMP INVALID LOG2 PUSH5 0x6970667358 0x22 SLT KECCAK256 PUSH15 0x6A63F8698C321C5EB2C1107631EBC9 0xE7 0xD0 PUSH20 0xEF8308F3BA486917D45A1039FC64736F6C634300 ADDMOD SHL STOP CALLER "},"methodIdentifiers":{"calculateCreditScore(uint256,uint256,uint256,uint256,uint256)":"0029f3c3","calculateScore(address)":"23e957b6","getLiquidity(address,uint256)":"740ad12a","getProtocolScore(address)":"167ccedc","getRepaymentHistory(address)":"cb8b748b","getTokenHoldingsRisk(address)":"cc255b52"}}}}}