{
  "_format": "hh-sol-artifact-1",
  "contractName": "Lending",
  "sourceName": "contracts/Lending.sol",
  "abi": [
    {
      "inputs": [
        {
          "internalType": "address",
          "name": "_addressProvider",
          "type": "address"
        }
      ],
      "stateMutability": "nonpayable",
      "type": "constructor"
    },
    {
      "inputs": [],
      "name": "ADDRESSES_PROVIDER",
      "outputs": [
        {
          "internalType": "contract IPoolAddressesProvider",
          "name": "",
          "type": "address"
        }
      ],
      "stateMutability": "view",
      "type": "function"
    },
    {
      "inputs": [],
      "name": "POOL",
      "outputs": [
        {
          "internalType": "contract IPool",
          "name": "",
          "type": "address"
        }
      ],
      "stateMutability": "view",
      "type": "function"
    },
    {
      "inputs": [
        {
          "internalType": "address",
          "name": "_poolContractAddress",
          "type": "address"
        }
      ],
      "name": "allowanceToken",
      "outputs": [
        {
          "internalType": "uint256",
          "name": "",
          "type": "uint256"
        }
      ],
      "stateMutability": "view",
      "type": "function"
    },
    {
      "inputs": [
        {
          "internalType": "uint256",
          "name": "_amount",
          "type": "uint256"
        },
        {
          "internalType": "address",
          "name": "_poolContractAddress",
          "type": "address"
        }
      ],
      "name": "approveToken",
      "outputs": [
        {
          "internalType": "bool",
          "name": "",
          "type": "bool"
        }
      ],
      "stateMutability": "nonpayable",
      "type": "function"
    },
    {
      "inputs": [],
      "name": "collateralToken",
      "outputs": [
        {
          "internalType": "contract IERC20",
          "name": "",
          "type": "address"
        }
      ],
      "stateMutability": "view",
      "type": "function"
    },
    {
      "inputs": [
        {
          "internalType": "address",
          "name": "_tokenAddress",
          "type": "address"
        }
      ],
      "name": "getBalance",
      "outputs": [
        {
          "internalType": "uint256",
          "name": "",
          "type": "uint256"
        }
      ],
      "stateMutability": "view",
      "type": "function"
    },
    {
      "inputs": [
        {
          "internalType": "address",
          "name": "_userAddress",
          "type": "address"
        }
      ],
      "name": "getUserAccountData",
      "outputs": [
        {
          "internalType": "uint256",
          "name": "totalCollateralBase",
          "type": "uint256"
        },
        {
          "internalType": "uint256",
          "name": "totalDebtBase",
          "type": "uint256"
        },
        {
          "internalType": "uint256",
          "name": "availableBorrowsBase",
          "type": "uint256"
        },
        {
          "internalType": "uint256",
          "name": "currentLiquidationThreshold",
          "type": "uint256"
        },
        {
          "internalType": "uint256",
          "name": "ltv",
          "type": "uint256"
        },
        {
          "internalType": "uint256",
          "name": "healthFactor",
          "type": "uint256"
        }
      ],
      "stateMutability": "view",
      "type": "function"
    },
    {
      "inputs": [],
      "name": "loanToken",
      "outputs": [
        {
          "internalType": "contract IERC20",
          "name": "",
          "type": "address"
        }
      ],
      "stateMutability": "view",
      "type": "function"
    },
    {
      "inputs": [
        {
          "internalType": "address",
          "name": "",
          "type": "address"
        }
      ],
      "name": "userCreditScores",
      "outputs": [
        {
          "internalType": "uint256",
          "name": "",
          "type": "uint256"
        }
      ],
      "stateMutability": "view",
      "type": "function"
    },
    {
      "stateMutability": "payable",
      "type": "receive"
    }
  ],
  "bytecode": "0x60e0604052731c7d4b196cb0c7b01d743fbc6116a902379c723873ffffffffffffffffffffffffffffffffffffffff1660c09073ffffffffffffffffffffffffffffffffffffffff1681525034801561005757600080fd5b50604051610fe9380380610fe9833981810160405281019061007991906103ee565b8073ffffffffffffffffffffffffffffffffffffffff1660808173ffffffffffffffffffffffffffffffffffffffff168152505060805173ffffffffffffffffffffffffffffffffffffffff1663026b1d5f6040518163ffffffff1660e01b8152600401602060405180830381865afa1580156100fa573d6000803e3d6000fd5b505050506040513d601f19601f8201168201806040525081019061011e91906103ee565b73ffffffffffffffffffffffffffffffffffffffff1660a08173ffffffffffffffffffffffffffffffffffffffff16815250506101986040518060400160405280600681526020017f504f4f4c3a20000000000000000000000000000000000000000000000000000081525060a05161028860201b60201c565b336000806101000a81548173ffffffffffffffffffffffffffffffffffffffff021916908373ffffffffffffffffffffffffffffffffffffffff16021790555060c051600160006101000a81548173ffffffffffffffffffffffffffffffffffffffff021916908373ffffffffffffffffffffffffffffffffffffffff1602179055506102826040518060400160405280600781526020017f544f4b454e3a2000000000000000000000000000000000000000000000000000815250600160009054906101000a900473ffffffffffffffffffffffffffffffffffffffff1661028860201b60201c565b50610519565b610326828260405160240161029e9291906104ba565b6040516020818303038152906040527f319af333000000000000000000000000000000000000000000000000000000007bffffffffffffffffffffffffffffffffffffffffffffffffffffffff19166020820180517bffffffffffffffffffffffffffffffffffffffffffffffffffffffff838183161783525050505061032a60201b60201c565b5050565b61034b8161034661034e60201b6105b01761036f60201b60201c565b60201c565b50565b60006a636f6e736f6c652e6c6f679050600080835160208501845afa505050565b61038160201b6105d117819050919050565b6103896104ea565b565b600080fd5b600073ffffffffffffffffffffffffffffffffffffffff82169050919050565b60006103bb82610390565b9050919050565b6103cb816103b0565b81146103d657600080fd5b50565b6000815190506103e8816103c2565b92915050565b6000602082840312156104045761040361038b565b5b6000610412848285016103d9565b91505092915050565b600081519050919050565b600082825260208201905092915050565b60005b8381101561045557808201518184015260208101905061043a565b60008484015250505050565b6000601f19601f8301169050919050565b600061047d8261041b565b6104878185610426565b9350610497818560208601610437565b6104a081610461565b840191505092915050565b6104b4816103b0565b82525050565b600060408201905081810360008301526104d48185610472565b90506104e360208301846104ab565b9392505050565b7f4e487b7100000000000000000000000000000000000000000000000000000000600052605160045260246000fd5b60805160a05160c051610a9d61054c600039600050506000818161038301526103d60152600061027a0152610a9d6000f3fe60806040526004361061008a5760003560e01c80637535d246116100595780637535d24614610166578063b2016bd414610191578063bf92857c146101bc578063d2180e61146101fe578063f8b2cb4f1461023b57610091565b80630542975c1461009657806306d37817146100c1578063449d31bb146100ec5780636dac24821461012957610091565b3661009157005b600080fd5b3480156100a257600080fd5b506100ab610278565b6040516100b8919061065a565b60405180910390f35b3480156100cd57600080fd5b506100d661029c565b6040516100e39190610696565b60405180910390f35b3480156100f857600080fd5b50610113600480360381019061010e91906106f4565b6102c2565b604051610120919061073a565b60405180910390f35b34801561013557600080fd5b50610150600480360381019061014b91906106f4565b6102da565b60405161015d919061073a565b60405180910390f35b34801561017257600080fd5b5061017b610381565b6040516101889190610776565b60405180910390f35b34801561019d57600080fd5b506101a66103a5565b6040516101b39190610696565b60405180910390f35b3480156101c857600080fd5b506101e360048036038101906101de91906106f4565b6103cb565b6040516101f596959493929190610791565b60405180910390f35b34801561020a57600080fd5b506102256004803603810190610220919061081e565b610483565b6040516102329190610879565b60405180910390f35b34801561024757600080fd5b50610262600480360381019061025d91906106f4565b61052d565b60405161026f919061073a565b60405180910390f35b7f000000000000000000000000000000000000000000000000000000000000000081565b600360009054906101000a900473ffffffffffffffffffffffffffffffffffffffff1681565b60046020528060005260406000206000915090505481565b6000600160009054906101000a900473ffffffffffffffffffffffffffffffffffffffff1673ffffffffffffffffffffffffffffffffffffffff1663dd62ed3e30846040518363ffffffff1660e01b81526004016103399291906108a3565b602060405180830381865afa158015610356573d6000803e3d6000fd5b505050506040513d601f19601f8201168201806040525081019061037a91906108e1565b9050919050565b7f000000000000000000000000000000000000000000000000000000000000000081565b600260009054906101000a900473ffffffffffffffffffffffffffffffffffffffff1681565b6000806000806000807f000000000000000000000000000000000000000000000000000000000000000073ffffffffffffffffffffffffffffffffffffffff1663bf92857c886040518263ffffffff1660e01b815260040161042d919061090e565b60c060405180830381865afa15801561044a573d6000803e3d6000fd5b505050506040513d601f19601f8201168201806040525081019061046e9190610929565b95509550955095509550955091939550919395565b6000600160009054906101000a900473ffffffffffffffffffffffffffffffffffffffff1673ffffffffffffffffffffffffffffffffffffffff1663095ea7b383856040518363ffffffff1660e01b81526004016104e29291906109b6565b6020604051808303816000875af1158015610501573d6000803e3d6000fd5b505050506040513d601f19601f820116820180604052508101906105259190610a0b565b905092915050565b60008173ffffffffffffffffffffffffffffffffffffffff166370a08231306040518263ffffffff1660e01b8152600401610568919061090e565b602060405180830381865afa158015610585573d6000803e3d6000fd5b505050506040513d601f19601f820116820180604052508101906105a991906108e1565b9050919050565b60006a636f6e736f6c652e6c6f679050600080835160208501845afa505050565b6105d9610a38565b565b600073ffffffffffffffffffffffffffffffffffffffff82169050919050565b6000819050919050565b600061062061061b610616846105db565b6105fb565b6105db565b9050919050565b600061063282610605565b9050919050565b600061064482610627565b9050919050565b61065481610639565b82525050565b600060208201905061066f600083018461064b565b92915050565b600061068082610627565b9050919050565b61069081610675565b82525050565b60006020820190506106ab6000830184610687565b92915050565b600080fd5b60006106c1826105db565b9050919050565b6106d1816106b6565b81146106dc57600080fd5b50565b6000813590506106ee816106c8565b92915050565b60006020828403121561070a576107096106b1565b5b6000610718848285016106df565b91505092915050565b6000819050919050565b61073481610721565b82525050565b600060208201905061074f600083018461072b565b92915050565b600061076082610627565b9050919050565b61077081610755565b82525050565b600060208201905061078b6000830184610767565b92915050565b600060c0820190506107a6600083018961072b565b6107b3602083018861072b565b6107c0604083018761072b565b6107cd606083018661072b565b6107da608083018561072b565b6107e760a083018461072b565b979650505050505050565b6107fb81610721565b811461080657600080fd5b50565b600081359050610818816107f2565b92915050565b60008060408385031215610835576108346106b1565b5b600061084385828601610809565b9250506020610854858286016106df565b9150509250929050565b60008115159050919050565b6108738161085e565b82525050565b600060208201905061088e600083018461086a565b92915050565b61089d816106b6565b82525050565b60006040820190506108b86000830185610894565b6108c56020830184610894565b9392505050565b6000815190506108db816107f2565b92915050565b6000602082840312156108f7576108f66106b1565b5b6000610905848285016108cc565b91505092915050565b60006020820190506109236000830184610894565b92915050565b60008060008060008060c08789031215610946576109456106b1565b5b600061095489828a016108cc565b965050602061096589828a016108cc565b955050604061097689828a016108cc565b945050606061098789828a016108cc565b935050608061099889828a016108cc565b92505060a06109a989828a016108cc565b9150509295509295509295565b60006040820190506109cb6000830185610894565b6109d8602083018461072b565b9392505050565b6109e88161085e565b81146109f357600080fd5b50565b600081519050610a05816109df565b92915050565b600060208284031215610a2157610a206106b1565b5b6000610a2f848285016109f6565b91505092915050565b7f4e487b7100000000000000000000000000000000000000000000000000000000600052605160045260246000fdfea2646970667358221220af9e2ede4425890d390a3ec3e674a5f7055b9d7ae8aa782a8c2f039cb43efd5964736f6c634300081b0033",
  "linkReferences": {},
  "deployedLinkReferences": {}
}